:020000040000FA
:0600000002011D022DA704
:030013000235377C
:03002B0002350F8C
:03003B000235B4D7
:03005300022E1A60
:03006B000234DB81
:10008300022C13E5C754F84401F5C7790122000097
:100093000080FB120086B90003020107E47921788E
:1000A30008B800028004F709D8FCE479297802B87B
:1000B30000028004F709D8FCE4900281782E790DC0
:1000C3008002F0A3D8FCD9FA781A90014D7A01BACC
:1000D30000028007E493A3F608DAF9900EAEAA8231
:1000E300AB8390014E782379048015E493A3AC820B
:1000F300AD838A828B83F0A3AA82AB838C828D83A8
:10010300D8E9D9E775828D758391740512012F752E
:100113008291758300740012012F75D00075813FA1
:10012300751881751902759F00020096C09FF59F8F
:10013300E473D09F22D083D082C09FE493C0E07445
:100143000193C0E0740293F59F2201FF0000B40005
:100153000028002800283075A000A000A000A000FF
:1001630000080008E001F00010001000100010006B
:100173001000100050005000500010001000D00775
:100183000000000000000F000100050030750700AB
:100193001000010081FF00000000FFC806E606CE44
:1001A30006FF02020208025000A0000000E803025A
:1001B300ACA80100006BA802A2A8010000050F0271
:1001C30094A8010000B30202A2A8010000060F02D6
:1001D30092A8010000C90202A2A8010000070F02B1
:1001E30090A8010000CB0202A2A8010000080F02A0
:1001F3008EA8080000CC0202A2A8010000090F0289
:100203008CA80100000A0FFFFF0100FF2002ACA829
:1002130001000071A802A2A80100006F0F02A6A8A6
:1002230000000000000296A80300005B03DA0CDA6A
:100233000CDA0CDA0CDA0CDA0CDA0CDA0CDA0CDA8B
:100243000CDA0CDA0CDA0C6E0F860F680FFFFF0264
:100253000202020202020202010D0000001001026A
:10026300ACA801000074A802A2A8010000B20F020A
:100273008AA80100009F0702A2A8010000B30F0291
:10028300A0A801000088A702A2A8010000B40F02E1
:10029300AAA80100000CA702A2A8010000B50F0242
:1002A3009AA7010000C0A702A2A8010000B60F028E
:1002B3007CA8010000C6A702A2A8010000B70F0294
:1002C30080A8010000EEA702A2A8010000B80F0257
:1002D30082A801000044A702A2A8010000B90F02EE
:1002E30084A801000028A702A2A8010000BA0F02F7
:1002F30086A8010000BB0F01E803053F100AFF00B9
:100303000130750302010600000000000000000038
:1003130000000000000000000000000000000000DA
:10032300000000FFFF0600800CE8030100594E2087
:10033300A9541C5B4566CBC6DF0DFCEE0000000133
:10034300003031323334353637383941424344454E
:100353004636A7D2A7CCA7413037313505313233E2
:1003630034353637383132333435363738FECF000B
:100373000100000001000000000000000000000078
:10038300000000000000000000000000000000006A
:100393000000000000000000000000000000000A50
:1003A3000942756D626C6562656505126400A00F94
:1003B300020A000201050302E7FE09FF0D00000027
:1003C3000000000042756D626C65626565000000A7
:1003D300002E160000200A0202ACA80100006EA83D
:1003E30002A2A80100003811029AA8000000250EFD
:1003F3000296A80300001F0E02A2A80100003911F3
:10040300029CA8030000260E02A2A80100003A11D4
:10041300029EA8010000A60E303132333435363740
:10042300383941424344454600286E756C6C207050
:100433006F696E7465722900303132333435363763
:100443003839616263646566003F3F3F00000080A6
:100453007F0000803F00000000F9021550B743BA47
:10046300510000204100E7DB2E0000A040120138BC
:10047300018C05120138178C05120138468C0512C0
:1004830001387C8C05120138938C05120138CA8C13
:1004930005120138E18C0512013861FD041201389F
:1004A30078FD04120138A9FD04120138E4FD041299
:1004B30001380EFE0412013838FE041201384FFED3
:1004C3000412013866FE041201387DFE041201385D
:1004D300A6FE04120138B9FE04120138CFFE04123D
:1004E3000138F9FE04120138E0EF03120138E4F099
:1004F3000312013811F10312013867F103120138B5
:100503008AF1031201389EF103120138A0F103129C
:100513000138C3F103120138C9F2031201388DF314
:100523000312013862F403120138DDF403120138B7
:10053300E0F40312013868F503120138A3F503123E
:100543000138DAF50312013868F60312013841F76E
:100553000312013844F703120138A4F703120138D8
:10056300AFF7031201382EF80312013831F80312E2
:10057300013834F80312013837F803120138C6F88A
:1005830003120138D0F803120138E0F803120138DE
:1005930010F9031201381DF90312013820F903126F
:1005A3000138A1F9031201388FFA0312013841FB14
:1005B300031201380ECA0412013836CA0412013874
:1005C30064CA041201389BCA04120138F9CA04121E
:1005D300013844CB041201388FCB04120138CFCB3E
:1005E3000412013815CC0412013843CC041201382B
:1005F30000CD041201380ACD0412013817CD0412BC
:1006030001384ACD0412013816CE0412013822CE25
:10061300041201383ACE0412013844CE04120138D0
:10062300F88C05120138068D051201381E8D05124E
:100633000138368D05120138008003120138AC8071
:10064300031201382781031201384882031201384B
:100653008482031201382D83031201381484031298
:100663000138788503120138CF850312013850868B
:10067300031201384087031201388D8703120138B2
:10068300138803120138458803120138598A03126B
:1006930001389B8A03120138B98A031201383C8B53
:1006A30003120138108C03120138D88C031201385D
:1006B3001BAD04120138EEAD0412013897AE0412DB
:1006C3000138EAAE041201389AAF0412013826B099
:1006D3000412013812B10412013841B10412013875
:1006E30054B2041201389CB20412013871B30412DB
:1006F3000138ADB304120138C9B3041201380991AA
:100703000512013876E0041201388CE00412013836
:10071300B2E004120138CEE104120138D8E1041228
:1007230001380DE30412013805E404120138FFBF58
:10073300041201382FC10412013862C104120138B6
:10074300ACC10412013873C304120138F18E0312D1
:100753000138758F03120138BE8F03120138A5913A
:10076300031201385E93031201383A9403120138DD
:10077300EE94031201382B9803120138D99803120F
:100783000138489A03120138DA9B03120138129C8C
:1007930003120138AF9C03120138CEEE0212013866
:1007A30038EF0212013897F002120138A7F0021253
:1007B3000138D4F0021201382BF102120138D4F1BE
:1007C30002120138DBF202120138A5F302120138DA
:1007D30005F50212013848F502120138EDF502124F
:1007E300013813F60212013821F80212013826F8F3
:1007F300021201382BFA0212013878FA0212013878
:10080300EBFA021201381EFB02120138C0FB02127E
:10081300013869FC02120138A1FC02120138A4FC60
:1008230002120138ECFC021201382CFD02120138CD
:1008330083FD02120138E5EC04120138F8EC0412CE
:10084300013806ED041201384EED0412013864ED4F
:1008530004120138ABED04120138BFEE0412013863
:100863004CEF0412013897EF041201387A63001237
:100873000138B56300120138FA6300120138BA6413
:10088300001201384065001201386C65001201380E
:10089300A56500120138E36700120138C769001229
:1008A3000138AD6B00120138F06C001201383E6F55
:1008B300001201385070001201389B710012013888
:1008C300AB7200120138C8720012013803730012B0
:1008D30001382573001201388873001201384978F2
:1008E30000120138DE78001201382F790012013826
:1008F300567900120138A87900120138C67900121E
:100903000138207A001201381F7B00120138A37BC3
:100913000012013886D30412013890D3041201382F
:10092300D3D304120138EED3041201387ED4041257
:100933000138A6D404120138E3D4041201381AD5BD
:100943000412013843D504120138B8D50412013812
:10095300CDD504120138E2D50412013813D604129E
:10096300013827D6041201384CD60412013886D632
:1009730004120138B2D60412013831D704120138F7
:1009830075D704120138BED704120138E8D7041210
:10099300013813D804120138DB8A051201380DE33C
:1009A300031201383BE30312013889E403120138CF
:1009B30069E50312013888E50312013805E60312DD
:1009C300013848E6031201389EE7031201385FE855
:1009D30003120138E6EA0312013887EB03120138E8
:1009E3007DEC031201387AED03120138D4EE0312C1
:1009F30001385FEF031201389B8405120138048527
:100A0300051201385885051201387F850512013812
:100A1300B085051201383BD804120138A8D8041256
:100A23000138EFD80412013807DA0412013803DB66
:100A330004120138E6DB04120138979504120138D9
:100A4300D99504120138AB96041201388497041225
:100A530001387E9804120138609904120138C9994B
:100A6300041201387F9A04120138F39A04120138F0
:100A73005F9B04120138889B04120138029C041204
:100A830001389B9C04120138009D04120138159D06
:100A9300041201385B9D04120138749D041201385D
:100AA300D99D04120138DC9D041201380FE70412AA
:100AB300013837E70412013875E70412013833E8C7
:100AC300041201389AE804120138B6E80412013816
:100AD300DEE8041201380EE9041201381DE904129C
:100AE30001389AE904120138C0E9041201389CDE86
:100AF300021201387AE002120138ACE20212013824
:100B0300E8E20212013815E302120138FFE3021290
:100B130001384AE40212013895E402120138A7E4CD
:100B230002120138E7E4021201381CE5021201380F
:100B33006AE50212013899E502120138BCE5021296
:100B4300013809E6021201388EE602120138A8E8DC
:100B530002120138E7EA0212013828EB02120138C7
:100B6300CAEC021201380BED021201387EED0212BB
:100B73000138D4ED02120138F8D503120138F6D644
:100B8300031201388FDD03120138B0DF031201387D
:100B93007BE103120138E3E2031201388FC601122D
:100BA30001383EC7011201386BC701120138B1C7C2
:100BB30001120138F1C80112013887CA0112013844
:100BC30001CB011201381CCB0112013897CB011262
:100BD3000138F1CC0112013851CE0112013857CF3F
:100BE30001120138B8D001120138D1D001120138F5
:100BF3002FD1011201381DD20112013850D2011236
:100C03000138C0D2011201383AD30112013884D31A
:100C1300011201384ED40112013823D501120138D3
:100C230002D6011201388DD601120138FBD601120A
:100C330001386FD7011201389AD70112013859D8F8
:100C430001120138BED901120138DBD90112013872
:100C5300FAD901120138EBDA0112013810DB011263
:100C630001383ADB01120138B5DB011201380FDC20
:100C73000112013878DD0112013826DE0112013834
:100C830067DE0112013824C80312013872C8031247
:100C930001387EC8031201385CC9031201388DC9BB
:100CA30003120138BEC9031201383ECA03120138C8
:100CB30076CA03120138C8CA0312013805CB0312DE
:100CC300013822CD0312013848CF0312013833D142
:100CD300031201381DD303120138EC7F00120138CF
:100CE3000080021201383080021201380987021293
:100CF30001388E88021201388B8E02120138738FED
:100D030002120138B08F02120138D38F0212013858
:100D13000490021201380D9002120138179002124A
:100D23000138059102120138FB910212013897DE56
:100D33000112013896E2011201389CE201120138D6
:100D4300D7E901120138F0EE01120138A8DC0412D0
:100D530001383EDD0412013854DD04120138CADDC6
:100D6300041201383EDE041201387CDE041201381D
:100D7300F0DE0412013869DF0412013872DF041255
:100D830001387EDF0412013893DF04120138D1DF0A
:100D930004120138E7DF0412013846E00412013877
:100DA300B2FB03120138BFFB03120138D9FB031254
:100DB300013818FC0312013856FC03120138BBFC3E
:100DC30003120138D0FC03120138DBFC0312013893
:100DD300E8FC03120138FFFC031201380DFD031276
:100DE300013818FD0312013824FD0312013833FDC5
:100DF300031201383EFD0312013861FD031201386D
:100E030008FE0312013818FE0312013832FE0312E2
:100E130001384FFE031201386BFE0312013890FEB6
:100E2300031201389BFE03120138B0FE031201388E
:100E3300C4FE0312013825FF031201382BFF0312EE
:100E4300013831FF0312013837FF031201384FFF16
:100E53000312013882FF03120138FDAB031201387C
:100E630081AC0312013830AD031201388FAE031287
:100E73000138B0B0031201389CB103120138D1B16B
:100E830003120138F3B103120138A2B2031201387D
:100E93009AB403120138C3B40312013855B50312CF
:100EA300013887B50312013894B503120138EBB545
:100EB3000312013811B6031201387EB80312013848
:100EC30081B903120138D9B9031201388C9D031279
:100ED3000138969E031201387D9F03120138879FC4
:100EE30003120138A99F03120138B59F0312013879
:100EF3004EA1031201387DA10312013899A20312F6
:100F03000138F2A20312013858A40312013837A59D
:100F13000312013893A50312013800A60312013806
:100F23003BA6031201387AA60312013833A9031230
:100F330001384DA903120138D9A903120138E7A9D1
:100F43000312013840AA031201384EAA03120138D2
:100F5300C1AA0312013825AB031201386FAB031288
:100F630001380080041201382280041201384882BB
:100F7300041201385D8504120138758604120138A4
:100F83002887041201380A880412013800800512E8
:100F93000138258005120138978005120138A1A573
:100FA30004120138AAA504120138B3A504120138AA
:100FB3008AA6041201383BA80412013871A804124E
:100FC3000138ABA804120138E1A8041201381BA9A7
:100FD300041201384FA9041201387BA90412013805
:100FE300C4A904120138FEA90412013847AA041245
:100FF30001389FAA04120138D4AA041201382FAB76
:101003000412013869AB04120138BAAB0412013877
:10101300F0AB041201382AAC0412013858AC0412A4
:1010230001387BAC041201389D8E05120138C98E3C
:1010330005120138248F051201382E8F051201384D
:101043003E8F05120138009E04120138159E0412CA
:1010530001386D9E04120138D49E041201381C9F7E
:1010630004120138929F04120138C19F04120138FF
:10107300CF9F0412013833A00412013871A0041267
:1010830001388CA00412013824A104120138CDA127
:101093000412013850A20412013889A20412013843
:1010A30014A3041201386BA304120138CAA3041257
:1010B3000138DCA30412013802A4041201380BA482
:1010C300041201386AA5041201383F87051201385A
:1010D3001E880512013817F5041201385CF5041255
:1010E3000138A2F50412013835F704120138CF8D07
:1010F30005120138EA8D05120138FA8D05120138FF
:10110300518E051201383EB4041201385EB4041244
:10111300013862B504120138AEB504120138CEB5F8
:101123000412013821B6041201388EB604120138B4
:10113300D4B60412013838B704120138EAB90412DC
:1011430001386BBA04120138488F0512013870FE5A
:1011530002120138A7FE02120138D7FE021201382B
:10116300F7FE0212013851FF02120138CBCE0412EE
:101173000138F0CE041201387F9005120138B1A86E
:1011830001120138BFAB011201387FAD01120138E2
:101193002AAE01120138CEAE0112013867AF011237
:1011A300013841B401120138ECB4011201385CB6C4
:1011B30001120138C4B60112013878B7011201389F
:1011C3003ABA0112013879BA01120138EDBA0112A3
:1011D30001384CBB01120138ABBB011201381ABCF8
:1011E300011201380DBD0112013853BD011201383E
:1011F30098BD01120138BBBD0112013836BF01127F
:10120300013849BF0112013852C00112013891C09F
:1012130001120138BDC00112013810C10112013899
:1012230031C10112013875C101120138C7C301125E
:10123300013808C401120138B3C4011201381EC5B4
:10124300011201385BC601120138EFFF02120138A7
:101253006EF20412013809F504120138AE92051238
:101263000138F685051201380686051201382686EF
:10127300051201382E870512013808EA04120138D5
:10128300AEEA04120138CAEC04120138A581051232
:101293000138D781051201383B82051201386E826D
:1012A30005120138DB82051201382A830512013841
:1012B3002D83051201383B83051201385383051230
:1012C30001386E83051201388E8305120138DC83E1
:1012D30005120138F683051201381084051201380E
:1012E30026840512013845840512013866840512E7
:1012F300013826C50412013845C504120138DAC580
:1013030004120138CAC60412013827C9041201386D
:1013130087C904120138F0C904120138F87F00129A
:101323000138C1EF04120138B8F10412013824F274
:10133300041201386BF2041201380FE4041201386D
:1013430027E404120138F7E404120138D6E5041245
:101353000138CAE604120138D8E60412013801E75D
:1013630004120138ABF90412013814FA04120138DB
:10137300D2FA0412013851FB041201380A7C00121C
:1013830001383C7C00120138447D00120138697E2B
:1013930000120138257F001201382E8B0412013808
:1013A300148C04120138618C04120138A48C0412C9
:1013B3000138198D041201387A8D04120138EF8D2A
:1013C30004120138CB8E04120138D68F041201386F
:1013D300579004120138FE910412013894920412BA
:1013E30001380793041201388393041201389A9346
:1013F30004120138D194041201382B9504120138D8
:1014030008A802120138A0AC0212013874AF02120C
:1014130001389DAF02120138C6AF0212013878B00D
:10142300021201385EB20212013899B30212013876
:10143300CFB80212013808B9021201384CB90212AE
:1014430001385EBA0212013879F704120138D0F775
:1014530004120138FBF70412013835F8041201387D
:1014630088F804120138E791051201383836001262
:101473000138DE4500120138335100120138B089BA
:1014830005120138AAFB041201381EFC04120138AC
:10149300A6F301120138BFF301120138ECF3011274
:1014A3000138E7F40112013815F601120138DBF6B1
:1014B3000112013805F70112013856F701120138FC
:1014C30013F80112013830F80112013859F80112EA
:1014D300013833F90112013866F90112013899F91B
:1014E30001120138CBF90112013872FA01120138E5
:1014F300A5FB01120138E2FB01120138FCFB0112CA
:10150300013896FC01120138C7FC0112013808FDAD
:10151300011201388BFD0112013883FE01120138DB
:10152300C7FE011201380BFF01120138A0FF01129F
:1015330001381394021201382894021201383D94A1
:10154300021201385094021201389F94021201389A
:10155300679502120138719702120138689B0212D3
:101563000138A79C02120138329D02120138829E73
:1015730002120138CCA2021201384CA30212013824
:101583007AA402120138C7A502120138B5A60212C5
:10159300013876A7021201381EBB021201385ABC69
:1015A3000212013853BD021201386EC10212013812
:1015B3009AC4021201385EC60212013811C802121F
:1015C300013822CA0212013804CB021201382DCC91
:1015D30002120138BBCC0212013857CD0212013876
:1015E30027BA031201385ABA0312013868BC03122E
:1015F3000138B7BD03120138EFBD0312013844BEF1
:10160300031201389CBE031201380DBF03120138C7
:10161300D3C10312013844C203120138E8C20312D2
:10162300013807C4031201380EC50312013811C56E
:101633000312013836C5031201383CC503120138C1
:1016430085C503120138C0C50312013853C60312FE
:101653000138BBC603120138CEC60312013862C774
:101663000312013811C8031201387CBA041201387D
:10167300CFBA04120138E2BA0412013852BB041281
:101683000138ABBC04120138C2BF041201383C92CA
:1016930005120138829205120138DDFF011201386B
:1016A300F18F051201381B90051201380BFF04124C
:1016B30001387A8805120138BF8805120138E0CD58
:1016C3000212013803D302E76670100809E7667057
:1016D3000A0809E76670040809E76622E0667010E5
:1016E30008A3E066700A08A3E066700408A3E06636
:1016F30022C008C3E096F50808A3E096420808A3B1
:10170300E096420808A3E0964208A2D265D033E5EA
:10171300087001D3D00822C3E7960809E7960809A1
:10172300E7960809E79622C3E09608A3E09608A384
:10173300E09608A3E09622C008C3E096F50808A344
:10174300E096420808A3E096420808A3E0964508FD
:101753007001D3D00822080808E630E711122018D8
:10176300121771080808C64480C6181818221818DA
:1017730018E9799EC608CAC608CBC608CCC6C3708A
:10178300207996CACBCC7019798ECBCC701379861D
:10179300CC700EF9802ACA33CACB33CBCC33CC33CB
:1017A3001930E7F2CCCBCA3350147004EA30E00DA1
:1017B300E4CA3ACACB3BCBCC3CCC500209C3E913B5
:1017C300C6CC182313C6CB18C6CA18C6F9221218DA
:1017D3001120F01430E72B74FFFCFBFA747F802296
:1017E300E4FCFBFA7480801AB48008BC00F2BB00EE
:1017F300EF800F50EBF9E4C39AFAE49BFBE49CFC03
:10180300E499C6CC18C6CB18C6CA18C6F922E4C9CF
:10181300C608CAC608CBC6D3330308CCC63392F076
:10182300C3947F402E94184019C9B90704CACBCC7E
:10183300225025C309CA33CACB33CBCC33CC33D9DB
:10184300F422F4600DC9CCC313CB13CBCA13CAD98A
:10185300F6CC22E4FCFBFA2214FCFBFA22E6C333A7
:1018630018461846184622E7C3331947194719473C
:1018730022181818E6084608700AE608C3337005EC
:10188300E633F4220822191919E7094709700AE710
:1018930009C3337005E733F4220922E6084608C377
:1018A300134608336002E633F422E7094709C313FA
:1018B3004709336002E733F42212189E6025121899
:1018C300AD6020121860700302186A080808E76602
:1018D30070101819E766700A1819E766700418196A
:1018E300E76622F42212189E601C1218AD601712CC
:1018F3001860700712186A7001D322C0D012186AD8
:101903007006D0D0B322C32233D0D0501430E0F6C7
:10191300C3E7960809E7960809E7960809E796B327
:101923002220E0D5E6970809E6970809E697080913
:10193300E697B32212189E601B1218AD6016121898
:1019430060700712186A600CB322C0D012186A7054
:1019530005D0D022C32233D0D0501330E0EBC3E7FD
:10196300960809E7960809E7960809E7962220E012
:10197300E4E6970809E6970809E6970809E6972237
:101983000012189E604F1218AD6012E7548066F67D
:10199300121874701112186A703B090909F4F618C9
:1019A300F618F618F622121889701512186008082E
:1019B3000860EAE6447FF618768018E4F618F62203
:1019C300121860601612186A7012E4F608F608F628
:1019D30008E65480F609090918181822EAC0E0EB52
:1019E300C0E0ECC0E0EDC0E0E687F0A4FBACF0089B
:1019F300E687F0A42CFCE435F0FA1809E687F0A496
:101A03002C4B60027401CA35F0FCE433FB09E68712
:101A1300F0D2F7A42CCB35F0FC1908E687F0A42B01
:101A2300CC35F0FBE433FD0819E687F0D2E7A42CAC
:101A33004ACB35F0CD3400FC09E687F0D2E7A42D7C
:101A4300CC35F0FDE433FA0918E687F0D2F7A42C7D
:101A5300CD35F0CA3400FC08E687F0D2E7D2F7A40C
:101A63002ACC35F07A7E20E70B0ACB33CBCD33CDAE
:101A7300CC33CC33CB3350147004ED30E00ED2F1C1
:101A8300E4CD3DCDCC3CCC3B5005DA05C2F1EB5463
:101A93007FC63308E63392F0FBE73309E733C39A93
:101AA300502D2B70190C0D4C4D70151806E608C3FC
:101AB30033700D20F10AA2F013F6E418800B4024D2
:101AC300E4F630F002768018F618F618F68024D380
:101AD3003B14501074FFA2F013F6187680E418F646
:101AE30018F6800FA2F013F618E63303F618ECF697
:101AF30018EDF6D0E0FDD0E0FCD0E0FBD0E0FA2218
:101B03001218AD604612189E603DE9687008F61819
:101B1300F618F618F622748067F7121B37090909BD
:101B2300748067F72212189E601D1218AD70051994
:101B33001919801A121874701F121889C37003E6DA
:101B4300673319191940071818182208080874FF71
:101B5300F618F618F618F622121889601712186A82
:101B6300702192F01218607019501720F0140808B1
:101B730008090909E7F61819E7F61819E7F6181915
:101B8300E7F62212186060E6E869701F0808E62489
:101B930080F608E436F618547FB47F0CE654806070
:101BA30007F6E418F618F622181822E9C6CC08C678
:101BB300CD08C6CE08C6CFC0E0E8C0E0EAC0E0EB7F
:101BC300C0E009E9F809E7FA09E7FBE6F918E6F8DE
:101BD300C3EC98ED99EE9AEBC2E7F5F0EFC2E79507
:101BE300F0500E600CEBCFFBEACEFAE9CDF9E8CC6E
:101BF300F8EAA2E7D2E7FAEB33FB13F5F0EEA2E73C
:101C0300D2E7FEEF33FFC5F013A2E730E601B313CB
:101C1300C5F0C3C0E0C0F07F00C39BFB605E9418B7
:101C2300600F401D14601AD0E023F9D0E0F8021DC4
:101C3300098AF0E9486003D2F0E4AFF0FAF9F880DA
:101C43003BEB30E40D89F0EA6003D2F0E4AFF0F946
:101C5300CAF8EB30E30D88F0EF6002D2F0AFF0E4A6
:101C6300CAC9F8EB54076014FBC3EA13FAE913F982
:101C7300E813F8EF135002D2E0FFDBEDD0E0C0E051
:101C830030E739C3E49FFFF5F0EC98FC42F0ED999F
:101C9300FD42F0EE9AFE42F0D0E0F9D0E0F8E5F034
:101CA300607AE923F9EE20E742D8028067C3EF3375
:101CB300FFEC33FCED33FDEE33FE80EAEC28FCED64
:101CC30039FDEE3AFED0E023F9D0E0F84002801B64
:101CD300C3EE13FEED13FDEC13FCEF135002D2E041
:101CE300FF08B800067F7F74FF802EEF3350178CF8
:101CF300F020F00260100CBC000C0DBD00080EBEFD
:101D0300000408E860DFE933E813FFEE2313FE4F16
:101D13004D4C8008E95480FFE4FEFDFCEE33EF33C5
:101D2300F47004FCFD7E80D0E0FBD0E0FAD0E0F854
:101D3300D0E0CFC618CEC618CDC618CCC6F922122D
:101D4300189E7004181818221218AD700D74FFF63F
:101D53001819F61819F61819F622E7548066F612C0
:101D63001860700F12186A70F014F608F608F60877
:101D7300F680D112186A700CF608F608768008E629
:101D8300447F80EC12188C700C12187760BFE654F5
:101D930080F6E480BB121877700519191980A5E83D
:101DA30069700C763F18768018F618F6E8F922E683
:101DB300CDC0E018ECC0E0E633CD33CDD313F6E766
:101DC30019FCE7191933CC33C3947F400ECD9D50D2
:101DD3002408E65480F6E418F6800FF4043D14500A
:101DE3001408E6447FF6187680E418F618F6D0E077
:101DF300FCD0E0FD22CCD313CCFD18E4C6CBC0E06D
:101E030018E4C6CAC0E00808ED08C633E613F6189E
:101E1300E433C675F003C3CA97CA09CB97CB199CA1
:101E230040047D08802EBD0003021EEB16B6FF059D
:101E33000606081618C3CA33CACB33CB33CA27CA1C
:101E430009CB37CB193CC37D08803E187D0820E7BA
:101E53005CC633C6CA33CACB33CB33DDF1D5F0EB23
:101E630030E77BCA97CA09CB974ACB199C406F4B83
:101E73007025E620E0218066187D08C3CA97CA0949
:101E8300CB97CB199CD3C633C6CA33CACB33CB3318
:101E930050C9DDE7D5F0E1D3E4C636C608C636C679
:101EA30008C636C608C636C61818188031C3CA977E
:101EB300CA09CB97CB199CB34097C633C6CA33CA5A
:101EC300CB33CB33DD34D5F02EC6A2E0C640C8CA2F
:101ED30027CA09CB37194A70BECB3CB480B908086E
:101EE300E63308E633601F181818D0E0FAD0E0FB99
:101EF300D0E0FCD0E0FD22187D08CA27CA09CB3701
:101F0300CB193CD3808013F618E4B67F11F618B6CC
:101F1300FF0EF618C60470D20808768080CAF61839
:101F2300F618F680C5080808EAC0E0EBC0E086F0C2
:101F3300E7A4FA180986F0E7A42AFA180986F0E755
:101F4300A42AFA180986F0E7A42AFA1986F0E7A466
:101F5300FBE5F02AFA190886F0E7A42BFBE5F03A33
:101F6300FA190886F0E7A42BFBE5F03AFA181809EA
:101F730086F0E7A4C5F02BFBE43AFA1908E7C5F0AD
:101F8300C6A426F6E5F03BFBE43AFA1886F0E7A48C
:101F9300F6E5F00826F6E43B08F6E43A08F6D0E066
:101FA300FBD0E0FA22E4CFC0E0E4CEC0E0E4CDC051
:101FB300E0E4CCC0E075F020C3E633F608E633F680
:101FC30008E633F608E633F6181818EC33FCED335D
:101FD300FDEE33FEEF33FFC3EC9709ED9709EE9760
:101FE30009EF97191919400FFFEC97FC09ED97FDBD
:101FF30009EE97FE191906D5F0BEECF709EDF709BE
:10200300EEF709EFF7191919D0E0FCD0E0FDD0E0A5
:10201300FED0E0FF22181818E4C396F608E496F6FB
:1020230008E496F608E496F6226017080808C6A2A4
:10203300E713C618C613C618C613C618C613C6D5E3
:10204300E0E9226016080808C6C313C618C613C6FB
:1020530018C613C618C613C6D5E0EA2270090808C5
:1020630008226016181818C6C333C608C633C60834
:10207300C633C608C633C6D5E0EA22E627F6080902
:10208300E637F60809E637F60809E637F622E026CA
:10209300F608A3E036F608A3E036F608A3E036F622
:1020A30022E026F008A3E036F008A3E036F008A308
:1020B300E036F022C3E697F60809E697F60809E644
:1020C30097F60809E697F622C3E096F008A3E09690
:1020D300F008A3E096F008A3E096F022E657F6088E
:1020E30009E657F60809E657F60809E657F622E027
:1020F30056F608A3E056F608A3E056F608A3E05602
:10210300F622E056F008A3E056F008A3E056F008E4
:10211300A3E056F022E647F60809E647F60809E683
:1021230047F60809E647F622E667F60809E667F682
:102133000809E667F60809E667F622E066F608A3EB
:10214300E066F608A3E066F608A3E066F622E0F68A
:1021530008A3E0F608A3E0F608A3E0F622E6F008F9
:10216300A3E6F008A3E6F008A3E6F022E0FAA3E072
:10217300FBA3E0FCA3E0FD22EAF0A3EBF0A3ECF069
:10218300A3EDF022CAC0E0E6F0A308DAFAD0E0FA41
:1021930022CAC0E0E0A3C582CCC582C583CDC58376
:1021A300F0A3C582CCC582C583CDC583DAE6D0E072
:1021B300CA22C3E498F8E499F91221F68026C3E40D
:1021C3009AFAE49BFBE920E7E91221F6E498F8E4A4
:1021D30099F922C3E498F8E499F91221F6E498F8FE
:1021E300E499F9C3E49AFAE49BFB22EB20E7CFE9F5
:1021F30020E7E0B90010BB0008E88AF084F8AAF0F1
:1022030022E4FBC8FA22EB70227B10C833C8C9331F
:10221300C9335007C39AC3DBF280069A50012ADB05
:10222300EAC833F4C8C933F4C9FA2275F008E4C81C
:1022330033C8C933C933C99AC99B5004C92AC93B96
:10224300D5F0ECFBC833F4C8E4C9FA22600D08C624
:10225300A2E713C618C613C6D5E0F322600C08C65E
:10226300C313C618C613C6D5E0F422700422600D4A
:1022730018C6C333C608C633C6D5E0F418222518DA
:1022830010AF08F518400215198008F5184002151B
:1022930019D2AF22C0D0251810AF08F51850020587
:1022A300198008F51850020519D2AFD0D02225188D
:1022B300F58210AF08F518400215198008F518408B
:1022C300021519D2AF851983222518F582E4351931
:1022D300F58322E4732518C582C0E0E51934FFC5F0
:1022E30083C0E0E518C3958224F810AF08858319ED
:1022F3008582188008858319858218D2AFCEF0A312
:10230300E520F0A37808E608F0A3DEFAEFF0A3E5F2
:102313008124FAF8E608F0A3E608F0A3E608F0A3A0
:102323000808E608F0A3E608F0A315811581D0E0BC
:10233300FED0E0F8158115811581E8C0E0EEC0E01C
:10234300222518C582C0E0E51934FFC583C0E0E546
:1023530018C3958224F910AF0885831985821880E4
:1023630008858319858218D2AFCEF0A3E520F0A3A8
:102373007808E608F0A3DEFAEFF0A3E58124FBF882
:10238300E608F0A3E608F0A30808E608F0A3E608C9
:10239300F0A315811581D0E0FED0E0F815811581F9
:1023A300E8C0E0EEC0E022851983851882E0A3FE31
:1023B300E0A3F5207808E0A3F608DFFAE0A3FFE046
:1023C300A3C0E0E0A3C0E0E0A3C0E0E0A3C0E0E07E
:1023D300A3C0E010AF088582188583198008858221
:1023E30018858319D2AFD083D08202013585198332
:1023F300851882E0A3FEE0A3F5207808E0A3F608A1
:10240300DFFAE0A3FFE0A3C0E0E0A3C0E0E0A3C0E5
:10241300E0E0A3C0E010AF08858218858319800827
:10242300858218858319D2AFD083D08222C0D0256C
:1024330018C582C0E0E51934FFC583C0E0E518C3C1
:10244300958224F310AF0885831985821880088547
:102453008319858218D2AFC8F0A3E9F0A3EAF0A3E9
:10246300EBF0A37908E709F0A3D8FAECF0A3EDF0B9
:10247300A3EEF0A3EFF0A3D0E0F0A3D0E0F0A3D05D
:10248300E0F0A3E520F0A3E5F0F0A322851983850E
:102493001882E0C0E0A3E0F9A3E0FAA3E0FBA3788D
:1024A30008E0F608A3DFFAE0FCA3E0FDA3E0FEA347
:1024B300E0FFA3E0C0E0A3E0C0E0A3E0F5D0A3E029
:1024C300F520A3E0A3F5F010AF08858319858218E2
:1024D3008008858319858218D2AFD082D083D0E05B
:1024E300F8D0E03274048006740280027401C0E004
:1024F300F4041222B1D0E012218722740480047400
:10250300028000CCC0E0EDC0E0E518C39CCCAD195F
:1025130050011D10AF068C188D1980068C188D196B
:10252300D2AF122194D0E0FDD0E0FC22D083D08240
:10253300E9C0E0E493A3C386F0C5F095F0F908E49D
:1025430093A386F0C5F095F0700BE493A3C3994071
:1025530005E9048002A3E475F002A42582F582E56F
:10256300F03583F583D0E0F9E493A3C0E0E493C0AE
:10257300E022D083D082E9C0E0E493A3C386F0C510
:10258300F095F0F908E493A386F0C5F095F0702474
:1025930008E493A386F0C5F095F0701908E493A3BB
:1025A30086F0C5F095F0700E08E493A3C399400735
:1025B300E9048004A3A3A3E475F002A42582F582B1
:1025C300E5F03583F583D0E0F9E493A3C0E0E49329
:1025D300C0E022D083D082ECC0E0EDC0E0E493A35E
:1025E300FCE493A3FDED4C600D122622EC24FFFCCA
:1025F300ED34FFFD80EFE493A3FCE493A3FDED4CE6
:10260300600D122661EC24FFFCED34FFFD80EFD05A
:10261300E0FDD0E0FCE493A3C0E0E493C0E022C07B
:10262300E0C3E49396087401939618400FE493660D
:10263300700808740193661870007019A3A3C3E4AB
:102643009396087401939618A3A3400DD0E0D0E0AD
:10265300D0E0022612A3A3A3A3A3A3D0E022C0E049
:10266300C0F088F0E49366700808740193661870EC
:1026730000A8F0A3A3700BD0F0D0E0D0E0D0E0022C
:102683002612A3A3D0F0D0E02274F5122344EAFE6D
:10269300EBFFEE2434F8EF3400F988088909EE24BF
:1026A30035F582EF3400F583E0F8EE2437F582EF59
:1026B3003400F583E0F50AEC850AF0A4FCAAF08562
:1026C3000AF0EDA42AFDE82CF8E43DF97A257B0015
:1026D3001221F6EA850882850983F0F8740758F910
:1026E3007401B900028004C333D9FCFAE81313134D
:1026F300541FF8EE28F8EF3400F9E8245DF582E979
:102703003400F583E05A6008EE2434F582EF802C20
:10271300EE2434F582EF3400F583E0C0E0EE243696
:10272300F582EF3400F583E0F5F0D0E084A8F0EE15
:1027330028F8EF3400F9E82438F582E93400F5830A
:10274300E0F97F040223F074F5122344EAFEEBFF61
:10275300EE2434F582EF3400F583E0C0E0EE243557
:10276300F582EF3400F583D0E0F08E828F83A3A34C
:10277300A3A3A3A3A3C082C0838E828F83A3A3A397
:10278300A3A3E0F8A3E0F9D083D082E0C398F508CF
:10279300A3E099F509EE247FF582EF3400F583E099
:1027A30064017069EE2480F582EF3400F583E0F86C
:1027B300A3E0F98E828F83A3A3A3A3A3A3A3E0FC27
:1027C300A3E0FD8E828F83A3A3A3A3A3E0FAA3E0D8
:1027D300FBC3EA9CEB9D5010C3EC98ED99402EC3CC
:1027E300EA98EB995027800EC3EA98EB994007C308
:1027F300EC98ED9940177C1E7D05EEFAEFFB120C69
:1028030038EE247FF582EF3400F583E4F0EE2434D0
:10281300F8EF3400F9E8FCE9FDEE2435F582EF34F6
:1028230000F583E0F8EE2437F582EF3400F583E01A
:10283300F50AE508850AF0A4F508AAF0850AF0E58B
:1028430009A42AF509E82508F8E43509F97A257B6E
:10285300001221F6EA8C828D83F0F8740758F9741C
:1028630001B900028004C333D9FCFAE813131354EB
:102873001FF8EE28F8EF3400F9E8245DF582E93417
:1028830000F583E05A6008EE2434F582EF802CEEE5
:102893002434F582EF3400F583E0C0E0EE2436F50E
:1028A30082EF3400F583E0F5F0D0E084A8F0EE2861
:1028B300F8EF3400F9E82438F582E93400F583E0D1
:1028C300F91234C7022745C082C08385188285194F
:1028D30083E0F8A3E0F9C3EA9CEB9D5010C3EC98A6
:1028E300ED99401BC3EA98EB995014800EC3EA9804
:1028F300EB994007C3EC98ED994004790180027984
:1029030000D083D08222EAC39CFAEB9DFB2274EFB2
:102913001223449003E4E064086005E06407702A2E
:102923009061C8E06024900412E0F4601DE0F87543
:10293300F003A4C8AAF02AF9741428FE740439FF1A
:102943008E828F83A3A3A3E07003022A4190606069
:10295300E0C0E0EE2468F582EF3400F583D0E0F0C8
:10296300750C87750D05750800750900E5D914F513
:102973000AE5D95403F50E60177403650E605CE530
:102983000A6010EE2467F582EF3400F583E07003EC
:10299300022A26900582E06401602AEE2482F582F1
:1029A300EF3400F583E06004780480027800850A40
:1029B30008E508C398FA95E0FB120B008A088B0917
:1029C300EA45097005120E3C8074EE2482F582EF0D
:1029D3003400F583E070048A0C8B0DE50A601285E0
:1029E3000C82850D83F50BE5D9F0A3150BE50B7070
:1029F300F6EE2482F582EF3400F583E0604474FC44
:102A0300250AF50A780C1224EBAC0AA90EEEFAEFAC
:102A1300FB120CD47402122297E97026AA08AB09A0
:102A230012136A793D8E828F83A3A3A3A3E0FA7B5B
:102A3300001209D4EEFAEFFB120C50120CE67900E7
:102A430080747403650E6056850A10751100781042
:102A53001224EBAC0CAD0DAA08AB09120CB0740236
:102A6300122297EE2468F582EF3400F583E0648048
:102A73007004747F8001E0F50C780C1224EFE50EEE
:102A8300F50C780C1224EFA90AAC08AD09900412D6
:102A9300E0FA7B00120998740212229780139003C4
:102AA300E4E06408600BAC0CAD0DEEFAEFFB120D25
:102AB30040120E4879017F0A0223F074F512234471
:102AC30074FC122281EAFEEBFF8908A2AFE433F51E
:102AD30009C2AF806AEE2463F8EF3400F97A007B11
:102AE30000A2AFE433F50AC2AF88828983E0FCA376
:102AF300E0FDEC4D603A88828983E0FAA3E0FB8A2B
:102B0300828B83E0FCA3E0FD88828983ECF0A3ED54
:102B1300F08A828B83E4F0A3F088828983E0FCA3AC
:102B2300E0FDEC4D700A88828983A3A3E4F0A3F04F
:102B3300E50AA2E092AF12136A900525E004F0EED5
:102B43002463F582EF3400F583E0F8A3E0F9E84964
:102B5300603DEE2463F582EF3400F583E02402FA4E
:102B6300A3E03400FBEA2402F50AEB3400F50B780A
:102B73000A1224EB8A828B83E0FCA3E0F9EEFAEFDE
:102B8300FB120C747402122297E97003022AD89084
:102B93000525E06063900526E0F8900525E0C398DD
:102BA300500C740265087050900527E0604A8E82CD
:102BB3008F83A3A3A3A3E0851882851983F0A3E4DD
:102BC300F0900525E0F874021222CCE8F0A3E4F0BB
:102BD300900525E0F8900524E028F074021222CC39
:102BE300AC82AD83851882851983AA82AB83790170
:102BF3001209A4900525E4F0E509A2E092AF74045C
:102C03001222970227450000008521878522C622CC
:102C1300C0E0C0D0E8C0E0E9C0E0EAC0E0EBC0E05B
:102C2300ECC0E0EDC0E0EEC0E0C008C009C00AC0DF
:102C33000BC082C083C0F0A2AFE433FEC2AF759B6A
:102C430000906182E0A2E05012E591A2E0500C7581
:102C530091FE740165217003122911E0A2E5505120
:102C6300E591A2E5504B7591DF9003E4E0640760C2
:102C730005E06408702374016521703579019004BF
:102C830012E0FA75F003A4CAA8F028FB74142AFA18
:102C930074043BFB122ABE8018E0640D7013900489
:102CA30006E004F064287002E4F07A00E0F9120E02
:102CB3004E906182E0A2E64003022D5AE591A2E61E
:102CC3004003022D5A7591BF9003E4E06405700838
:102CD300120D76120D828003120D7C752100120DE8
:102CE300DCE99003E5F07900120DD0120BAE7A0106
:102CF3007B009003E3E0F91210A0907803E06442B4
:102D03007055900586E014F0704DC2AF122D12007D
:102D1300782AD0E0F618D0E0F6E59F5407700575E1
:102D230009FF800375097FC4C0E07829E6F5080828
:102D3300E65509F509740B780812225FD0E02508DF
:102D4300F8906270E0A2E740F8E8C333906272F053
:102D5300906270E0D2E0F0906181E0A2E35009E577
:102D6300E9A2E3500375E9F7A3E0A2E75009E5916F
:102D7300A2E7500375917FEEA2E092AFD0F0D0832B
:102D8300D082D00BD00AD009D008D0E0FED0E0FD2D
:102D9300D0E0FCD0E0FBD0E0FAD0E0F9D0E0F8D00E
:102DA300D0D0E032C0E0C0D0C082C083906183E065
:102DB300A2E05009E5BFA2E0500375BFFEE0A2E127
:102DC3005009E5BFA2E1500375BFFDE0A2E250093F
:102DD300E5BFA2E2500375BFFBE0A2E35009E5BFE4
:102DE300A2E3500375BFF7E0A2E45009E5BFA2E4F4
:102DF300500375BFEFE0A2E55009E5BFA2E550031C
:102E030075BFDFE0A2E65009E5BFA2E6500375BF38
:102E1300BFD083D0828088C0E0C0D0E8C0E0E9C0E2
:102E2300E0EAC0E0EBC0E0ECC0E0EDC0E0C0F0E5FC
:102E3300A7A2E6500FE5A1A2E6500953A7BF75A1CB
:102E4300BF122E7FE5A7A2E5500CE5A1A2E550062F
:102E530053A7DF75A1DFE5A7A2E15009E5A1A2E130
:102E6300500375A1FDE5A7A2E2500CE5A1A2E25033
:102E73000653A7FB75A1FBD0F0022D9074F8122323
:102E8300447521019003E4E064067015120D048A71
:102E9300828B83A3A3A3A3A3A3E0FAA3E0FB120D56
:102EA30064A2AFE433FED2AF9003EAE0640170188A
:102EB3007A207B009003E3E0F912112A7A207B0049
:102EC3009003E3E0F91210A6906182E0D2E6F0905D
:102ED3000583E0602185C62280169003E9E0640142
:102EE3007008E5C654F84405F5C653BEFC122C0C15
:102EF3007401652160E4EEA2E092AF7F010223F04A
:102F0300008E238F2485822885832785188285193F
:102F130083E0CEA3E0CF852882852783EBC9EAC867
:102F2300EDCBECCA75F010C3E833C8E933C9EA3313
:102F3300CAEB33CBC3EA9EF526EB9FF525B35004CA
:102F4300AB25AA26EC33CCED33CDD5F0DAAE23AFE7
:102F5300242274E912234474F8122281851882858D
:102F63001983ECF0A3EDF08A088B099003E4E024C5
:102F7300F7C3940550067508010230EC120D048A5C
:102F83000A8B0BAE0AAF0BEE4F70030230E9AC08AD
:102F9300AD0974021222CCAA82AB83120D948E82E5
:102FA3008F83A3A3750CFF750DFF750EFF750F00BF
:102FB300780C1220F274021222CC7510FF7511FFE7
:102FC3007512FF75130078101220F2780C79101225
:102FD300171A502A780C79101220B7750801750951
:102FE300C8750A00750B007808790C12171A50522D
:102FF300850C08850D09850E0A850F0B8050751405
:10300300017515C875160075170085100885110917
:1030130085120A85130B7808790C1220B778147976
:103023000812171A401C750800750900750A007507
:103033000B01780879101220B77808790C12207EDA
:10304300800C750801750900750A00750B00740979
:10305300780812205F750C19F50DF50EF50F780839
:10306300790C121FA88E828F83A3A3A3A3A3A3E02B
:10307300F8A3E0F97AD07B031221F6880C890DE4DA
:10308300F50EF50F7808790C12207E74061222CC07
:10309300E0F8A3E0F97AD07B031221F6E8FA8A0C70
:1030A300E4F50D7808790C12171A50077808790C93
:1030B3001220B79003E4E06408600AE06406600548
:1030C300E06405702D750C0D780C790812171A4001
:1030D30021750CF4750DFF750EFF750FFF780879D8
:1030E3000C12207E800C750800750900750A0075A6
:1030F3000B00851882851983E0F8A3E0F5838882A5
:10310300780812216074081222977F100223F0744A
:10311300F7122344120DA6900581E064017010900C
:103123006245E4F0A3F053F4F343FE0C5390F3121F
:103133000D52E5C654804449F5C6E59E547F644963
:1031430070F8906185740FF090057FE0F47002A32E
:10315300E0604E900580E0600814601B14602E80D0
:103163004075080175090090057FE0780812226E0A
:10317300E508F45280802A75080175090090057FDF
:10318300E0780812226EE508F45290801475080165
:1031930075090090057FE0780812226EE508F45265
:1031A300A079007F020223F074F7122344E9FEEAB8
:1031B300FF74016E700C7A807B009003E3E0F912D8
:1031C30010A0903630E493F46008E493F9120BA254
:1031D300800953C680E59E547F70FA120D589005FE
:1031E30081E064017003120BBA90057FE0F4700272
:1031F300A3E0604B900580E0600814601A14602C13
:10320300803D75080175090090057FE0780812225A
:103213006EE5084280802875080175090090057FD6
:10322300E0780812226EE508429080137508017554
:10323300090090057FE0780812226EE50842A0128B
:103243000DA6120D048A088B09A808A909E849608C
:1032530015E5E170FCE82414F582E93400F583E018
:10326300F46003E0F5E174016F700A7A019003E3FF
:10327300E0F91210FA0231A674ED1223448A088B86
:10328300098C0A8D0B74131222CC780C12215178FD
:1032930008790C12171A7510017511C8751200758B
:1032A300130050127808790C1220B778107908129D
:1032B300171A50168010780C79081220B7781079F5
:1032C3000C12171A40047901800279007F0C022343
:1032D300F074ED1223448A088B098C0A8D0B741346
:1032E3001222CC780C122151780C790812171A404B
:1032F300117808790C1220B7AA08AB09AC0AAD0BF8
:103303008022751000751100751200751301781075
:10331300790C1220B77810790812207EAA10AB110D
:10332300AC12AD1380A68A828B837508FF7509FFE3
:10333300750AFF750B0078081221057F040223F03C
:1033430074F51223448C828D8378081221518A826A
:103353008B8378081220CBEA2404F8EB3400F98C31
:10336300828D83A3A3A3A3E0FCA3E0FD88828983CA
:10337300C3E09CF0A3E09DF088828983C3E094209E
:10338300A3E0944E40268A828B837508FF7509FF5C
:10339300750AFF750BFF78081220A48A828B83A31A
:1033A300A3A3A3E02420F0A3E0344EF00233297456
:1033B300F5122344E9FE900539E0FAA3E0FBEEC3DE
:1033C30033F8E433F974CE28F58274A639F583E033
:1033D3002AF508A3E03BF50978081224EB7A407B31
:1033E300427C0F7D00122F0474021222978A088BED
:1033F300098C0A8D0B74107808122046AA08AB09B1
:103403007F040223F074F11223448A0C8B0D8C0E7B
:103413008D0F740F1222CCE0FAA3E0FB7411122279
:10342300CCE0F508A3E0F50978081224EBEA2401BF
:10343300F508EB3400F509E4F50AF50B780C790887
:10344300121F28750871750902780C7908121F2854
:10345300AA0CAB0DAC0EAD0F122F047402122297FF
:103463008B09EA450960047A0180027A00EC2AFCA0
:10347300ED3400FD74131222CCE0F8A3E0F9E8FE6A
:10348300E9FFECF8EDF97A717B021221F6880889DD
:10349300098E828F837808122160ECF8EDF97A7136
:1034A3007B021221F68A088B097405780812226EB2
:1034B3008E828F83A3A3A3A3E508F0A3E509F07F7E
:1034C300080223F0C082C083E9906000F0D083D06B
:1034D3008222C2AF02000022C0E074F2122430A2A2
:1034E300AFE433FED2AFE589A2E04006E589A2E16D
:1034F30050031212A4758900758900C2C5751A009C
:10350300EEF8EEA2E092AF7F0102248FC0E0C0D0BC
:10351300E8C0E0E9C0E0A2AFE433F8D2AFC2C775B8
:103523001A00E8F9E8A2E092AFD0E0F9D0E0F8D0D1
:10353300D0D0E032C0E0C0D0E8C0E0E9C0E0EAC0EB
:10354300E0EBC0E0C082C083A2AFE433FAD2AFE5C0
:10355300C1FBC0E090093FE0F8790074BE28F58212
:10356300740839F583D0E0F090093EE0F890093F04
:10357300E0687006E595900941F090093FE0240169
:1035830090093FF0C39480400690093F7400F09087
:1035930009407400F0EAF8EAA2E092AFD083D08247
:1035A300D0E0FBD0E0FAD0E0F9D0E0F8D0D0D0E022
:1035B30032C0E0C0D0E8C0E0E9C0E0C008C009C044
:1035C30082C083A2AFE433F9D2AF9009C2E0F8908E
:1035D30009C3E068700B539AFB9009C47401F0802F
:1035E30031C2E99009C2E0F508740125089009C2C7
:1035F300F075090074422508F58274093509F583CD
:10360300E0F5C19009C2E0C3948040069009C274FA
:1036130000F0E9F8E9A2E092AFD083D082D009D0DC
:0C36230008D0E0F9D0E0F8D0D0D0E032C0
:10363000FFFFFFFFFFFFFFFF74E81222D874FA12AA
:103640002281851882851983EAF0A3EBF0740412B5
:1036500022CCECF0A3EDF0741E1222CC78081221DB
:1036600051851882851983E0F8A3E0F9E849600ED6
:1036700074041222CCE0F8A3E0F9E849700B7AFF59
:103680007BFF7CFF7DFF0245D490A82B78081216A3
:10369000DF601F90A82F78081216DF601590A833FE
:1036A00078081216DF600B7AFE7BFF7CFF7DFF023D
:1036B00045D474021222CC7400F0A37400F0740498
:1036C0001222CCE0F8A3E0F9E8FEE9FF90A82B78FD
:1036D000081216DF70287A0A7B007C007D007404D3
:1036E0001222CCE0F8A3E0C824F0F582E83400F51B
:1036F00083EAF0A3EBF0A3ECF0A3EDF0805890A8E0
:103700002F78081216DF70287A0C7B007C007D0071
:1037100074041222CCE0F8A3E0C824F0F582E83467
:1037200000F583EAF0A3EBF0A3ECF0A3EDF0802624
:103730007A0E7B007C007D0074041222CCE0F8A39A
:10374000E0C824F0F582E83400F583EAF0A3EBF05A
:10375000A3ECF0A3EDF0851882851983E0F8A3E0CF
:10376000F5838882E0F510E4F511F512F51374186D
:10377000781012205F851882851983E0F8A3E0F5A0
:10378000838882A3E0F514E4F515F516F517741097
:10379000781412205F7810791412212B85188285F5
:1037A0001983E0F8A3E0F5838882A3A3E0F514E48D
:1037B000F515F516F5177408781412205F7810794E
:1037C0001412212B851882851983E0F8A3E0F58374
:1037D0008882A3A3A3E0F514E4F515F516F5177890
:1037E00010791412212B8E828F837810122160851C
:1037F0001882851983E0F8A3E0F5838882A3A3A348
:10380000A3E0F510E4F511F512F513741878101211
:10381000205F851882851983E0F8A3E0F58388820C
:10382000A3A3A3A3A3E0F514E4F515F516F5177407
:1038300010781412205F7810791412212B851882C9
:10384000851983E0F8A3E0C82406F582E83400F582
:1038500083E0F514E4F515F516F5177408781412DD
:10386000205F7810791412212B851882851983E046
:10387000F8A3E0C82407F582E83400F583E0F514E6
:10388000E4F515F516F5177810791412212B8E82B0
:103890008F83A3A3A3A378101221608518828519B2
:1038A00083E0F8A3E0C82408F582E83400F583E05B
:1038B000F510E4F511F512F5137418781012205F65
:1038C000851882851983E0F8A3E0C82409F582E809
:1038D0003400F583E0F514E4F515F516F5177410CA
:1038E000781412205F7810791412212B85188285A4
:1038F0001983E0F8A3E0C8240AF582E83400F583D0
:10390000E0F514E4F515F516F5177408781412208F
:103910005F7810791412212B851882851983E0F8BD
:10392000A3E0C8240BF582E83400F583E0F514E445
:10393000F515F516F5177810791412212B8E828F54
:1039400083A3A3A3A3A3A3A3A37810122160851824
:1039500082851983E0F8A3E0C8240CF582E83400DE
:10396000F583E0F510E4F511F512F51374187810ED
:1039700012205F851882851983E0F8A3E0C8240D22
:10398000F582E83400F583E0F514E4F515F516F555
:10399000177410781412205F7810791412212B8577
:1039A0001882851983E0F8A3E0C8240EF582E83474
:1039B00000F583E0F514E4F515F516F517740878AD
:1039C0001412205F7810791412212B851882851922
:1039D00083E0F8A3E0C8240FF582E83400F583E023
:1039E000F514E4F515F516F5177810791412212B56
:1039F000EE240CF582EF3400F583781012216090EC
:103A0000A82B78081216DF6003023C46EE240CF562
:103A100082EF3400F583781012215185100C851146
:103A20000D85120E85130F8E828F83C082C0838511
:103A30000C10850D11850E12850F1374107810125D
:103A40002046E51054FFF8E5115400F9E875F0043C
:103A5000A4C8AAF075F000A42AFA75F004E9A42A13
:103A6000F9740028F58274A039F583781412215175
:103A700090A86778141220F2D083D0827814122193
:103A80003EA80CA90DE4C9F8E875F004A4C8AAF092
:103A900075F000A42AFA75F004E9A42AF974002844
:103AA000F582749C39F583781012215190A803781F
:103AB000101220F27814791012212B850C10850D2C
:103AC00011E51054FFF8E5115400F9E875F004A46D
:103AD000C8AAF075F000A42AFA75F004E9A42AF93E
:103AE000740028F582748C39F58378101221519076
:103AF000A83B78101220F27814791012212B850C33
:103B000010850D11850E12850F1374187810122070
:103B100046E51075F004A4C510A8F075F000A428BF
:103B2000F875F004E511A428F51174002510F5824C
:103B300074983511F583781012215190A83F7810B0
:103B40001220F27814791012212B74021222CCE088
:103B5000F8A3E0F9E875F004A4C8AAF075F000A491
:103B60002AFA75F004E9A42AF9743028F58274A4BD
:103B700039F583781412213EEE2410F582EF3400DB
:103B8000F58378141221608E828F83A3A3A3A37878
:103B900010122151EE2410F582EF3400F5837810D5
:103BA00012213EEE2414F582EF3400F583781012D2
:103BB00021608E828F83A3A3A3A3A3A3A3A37810C2
:103BC000122151EE2414F582EF3400F5837810129F
:103BD000213EEE2418F582EF3400F583781012218F
:103BE00060EE240CF582EF3400F583781012215139
:103BF000EE2418F582EF3400F583781012213EEEA2
:103C0000241CF582EF3400F58378101221607402D1
:103C10001222CCE02401F8A3E03400F9740212224D
:103C2000CCE8F0A3E9F0740A687003740069700BC3
:103C30007A007B007C007D000245D4EE2410FEEF6C
:103C40003400FF023A0C851882851983E0F8A3E05E
:103C5000C82410F582E83400F583E0F510E4F5118E
:103C6000F512F5137418781012205F8518828519E3
:103C700083E0F8A3E0C82411F582E83400F583E07E
:103C8000F514E4F515F516F5177410781412205F85
:103C90007810791412212B851882851983E0F8A3F6
:103CA000E0C82412F582E83400F583E0F514E4F569
:103CB00015F516F5177408781412205F781079142A
:103CC00012212B851882851983E0F8A3E0C82413FC
:103CD000F582E83400F583E0F514E4F515F516F502
:103CE000177810791412212BEE2410F582EF34008E
:103CF000F5837810122160851882851983E0F8A376
:103D0000E0C82414F582E83400F583E0F510E4F50A
:103D100011F512F5137418781012205F851882853A
:103D20001983E0F8A3E0C82415F582E83400F58390
:103D3000E0F514E4F515F516F51774107814122053
:103D40005F7810791412212B851882851983E0F889
:103D5000A3E0C82416F582E83400F583E0F514E406
:103D6000F515F516F5177408781412205F78107998
:103D70001412212B851882851983E0F8A3E0C8244A
:103D800017F582E83400F583E0F514E4F515F5162F
:103D9000F5177810791412212BEE2414F582EF34E4
:103DA00000F583781012216090A82F78081216DF92
:103DB0006003024049EE2414F582EF3400F5837865
:103DC0001012215185100C85110D85120E85130FCF
:103DD0008E828F83C082C083850C10850D11850E65
:103DE00012850F1374107810122046E51054FFF856
:103DF000E5115400F9E875F004A4C8AAF075F000C4
:103E0000A42AFA75F004E9A42AF9740028F582744A
:103E1000A039F583781412215190A86778141220E4
:103E2000F2D083D082781412213EA80CA90DE4C9E7
:103E3000F8E875F004A4C8AAF075F000A42AFA7591
:103E4000F004E9A42AF9740028F582749C39F583FA
:103E5000781012215190A80378101220F27814796A
:103E60001012212B850C10850D11E51054FFF8E57B
:103E7000115400F9E875F004A4C8AAF075F000A484
:103E80002AFA75F004E9A42AF9740028F582748CE2
:103E900039F583781012215190A83B78101220F246
:103EA0007814791012212B850C10850D11850E12B6
:103EB000850F1374187810122046E51075F004A4CD
:103EC000C510A8F075F000A428F875F004E511A459
:103ED00028F51174002510F58274983511F5837852
:103EE0001012215190A83F78101220F27814791006
:103EF00012212B74021222CCE0F8A3E0F9E875F04D
:103F000004A4C8AAF075F000A42AFA75F004E9A484
:103F10002AF9743028F58274A439F58378141221B3
:103F20003EEE2418F582EF3400F5837814122160F8
:103F30008E828F83A3A3A3A37810122151EE24189D
:103F4000F582EF3400F583781012213EEE241CF543
:103F500082EF3400F58378101221608E828F83A364
:103F6000A3A3A3A3A3A3A37810122151EE241CF5AD
:103F700082EF3400F583781012213EEE2420F58282
:103F8000EF3400F5837810122160EE240CF582EFF7
:103F90003400F5837810122151EE2420F582EF349D
:103FA00000F583781012213EEE2424F582EF3400D0
:103FB000F583781012216074021222CCE02401F8FB
:103FC000A3E03400F974021222CCE8F0A3E9F07403
:103FD00008687003740069700B7A007B007C007DB8
:103FE000000245D4EE2410F582EF3400F5837810FA
:103FF000122151EE2424F582EF3400F5837810125B
:10400000213EEE2428F582EF3400F583781012214A
:1040100060EE2414F582EF3400F5837810122151FC
:10402000EE2428F582EF3400F583781012213EEE5D
:10403000242CF582EF3400F5837810122160EE24F1
:1040400018FEEF3400FF023DB5851882851983E024
:10405000F8A3E0C82418F582E83400F583E0F510F1
:10406000E4F511F512F5137418781012205F851815
:1040700082851983E0F8A3E0C82419F582E83400AA
:10408000F583E0F514E4F515F516F51774107814BA
:1040900012205F7810791412212B851882851983DC
:1040A000E0F8A3E0C8241AF582E83400F583E0F5CF
:1040B00014E4F515F516F5177408781412205F78D6
:1040C00010791412212B851882851983E0F8A3E05A
:1040D000C8241BF582E83400F583E0F514E4F515F7
:1040E000F516F5177810791412212BEE2418F582A5
:1040F000EF3400F5837810122160851882851983CA
:10410000E0F8A3E0C8241CF582E83400F583E0F56C
:1041100010E4F511F512F5137418781012205F856C
:104120001882851983E0F8A3E0C8241DF582E834DD
:1041300000F583E0F514E4F515F516F5177410781D
:104140001412205F7810791412212B85188285199A
:1041500083E0F8A3E0C8241EF582E83400F583E08C
:10416000F514E4F515F516F5177408781412205FA8
:104170007810791412212B851882851983E0F8A311
:10418000E0C8241FF582E83400F583E0F514E4F577
:1041900015F516F5177810791412212BEE241CF55D
:1041A00082EF3400F583781012216090A8337808EC
:1041B0001216DF60030245CCEE241CF582EF3400BA
:1041C000F583781012215185100C85110D85120E82
:1041D00085130F8E828F83C082C083850C10850D5E
:1041E00011850E12850F1374107810122046E510F9
:1041F00054FFF8E5115400F9E875F004A4C8AAF0DA
:1042000075F000A42AFA75F004E9A42AF9740028CC
:10421000F58274A039F583781412215190A867783B
:10422000141220F2D083D082781412213EA80CA957
:104230000DE4C9F8E875F004A4C8AAF075F000A46C
:104240002AFA75F004E9A42AF9740028F582749C0E
:1042500039F583781012215190A80378101220F2BA
:104260007814791012212B850C10850D11E510544E
:10427000FFF8E5115400F9E875F004A4C8AAF07538
:10428000F000A42AFA75F004E9A42AF9740028F5CC
:1042900082748C39F583781012215190A83B7810E4
:1042A0001220F27814791012212B850C10850D1133
:1042B000850E12850F1374187810122046E51075BC
:1042C000F004A4C510A8F075F000A428F875F00457
:1042D000E511A428F51174002510F58274983511A4
:1042E000F583781012215190A83F78101220F278AF
:1042F00014791012212B74021222CCE0F8A3E0F9F9
:10430000E875F004A4C8AAF075F000A42AFA75F0C4
:1043100004E9A42AF9743028F58274A439F5837865
:104320001412213EEE2420F582EF3400F583781438
:104330001221608E828F83A3A3A3A3781012215130
:10434000EE2420F582EF3400F583781012213EEE42
:104350002424F582EF3400F58378101221608E82D8
:104360008F83A3A3A3A3A3A3A3A37810122151EE29
:104370002424F582EF3400F583781012213EEE24D8
:1043800028F582EF3400F5837810122160EE240CBA
:10439000F582EF3400F5837810122151EE2428F5D0
:1043A00082EF3400F583781012213EEE242CF58242
:1043B000EF3400F583781012216074021222CCE0F1
:1043C0002401F8A3E03400F974021222CCE8F0A32F
:1043D000E9F07407687003740069700B7A007B0061
:1043E0007C007D000245D4EE242CF582EF3400F5EC
:1043F00083781012215185100C85110D85120E85C0
:10440000130FEE2410F582EF3400F583C082C083D1
:10441000850C10850D11850E12850F1374187810F8
:10442000122046E51075F004A4C510A8F075F00040
:10443000A428F875F004E511A428F51174002510DE
:10444000F58274A03511F583781412215190A86774
:1044500078141220F2D083D082781412213E850C79
:1044600010850D11850E12850F137410781012200F
:1044700046E51054FFF8E5115400F9E875F004A47E
:10448000C8AAF075F000A42AFA75F004E9A42AF984
:10449000740028F582749C39F583781012215190AC
:1044A000A80378101220F27814791012212BA80C8E
:1044B000A90DE4C9F8E875F004A4C8AAF075F000E5
:1044C000A42AFA75F004E9A42AF9740028F5827484
:1044D0008C39F583781012215190A83B7810122066
:1044E000F27814791012212B850C10850D11E5102E
:1044F00054FFF8E5115400F9E875F004A4C8AAF0D7
:1045000075F000A42AFA75F004E9A42AF9740028C9
:10451000F582749839F583781012215190A83F786C
:10452000101220F27814791012212BEE2430F5822B
:10453000EF3400F5837814122160EE2414F582EF35
:104540003400F5837810122151EE2430F582EF34D7
:1045500000F583781012213EEE2434F582EF34000A
:10456000F5837810122160EE2418F582EF3400F5FF
:10457000837810122151EE2434F582EF3400F58354
:10458000781012213EEE2438F582EF3400F583785E
:1045900010122160EE241CF582EF3400F5837810B0
:1045A000122151EE2438F582EF3400F58378101291
:1045B000213EEE243CF582EF3400F5837810122181
:1045C00060EE2420FEEF3400FF0241B87A007B0049
:1045D0007C007D0074061222977F100223AA74E8E3
:1045E0001222D874F612228174081222CCEAF0A3A7
:1045F000EBF0851882851983ECF0A3EDF07422129C
:1046000022CC780C122151780C1224E77404122267
:10461000CCE0FCA3E0FD740C1222CCE0FAA3E0FB9A
:1046200012146C74041222978A088B098C0A8D0B61
:1046300074061222CCE508F0A3E509F074061222F4
:10464000CCC3E09400A3E09400A2D265D033501311
:1046500074061222CCE0FAA3E0FBEB3395E0FCFDFC
:10466000025129851882851983E0F8A3E0F9E8FE54
:10467000E9FF751400751500851882851983E0F827
:10468000A3E0C824F0F582E83400F583780812210D
:1046900051E50875F004A4C508A8F075F000A42839
:1046A000F875F004E509A428F509850816850917A9
:1046B000C3E5149516E5159517A2D265D0334003CE
:1046C0000249DEA814A915E875F004A4C8AAF0757B
:1046D000F000A42AFA75F004E515A42AF9EE28F5ED
:1046E00082EF39F58312216F74021222CC12217BE2
:1046F000A816A917E875F004A4C8AAF075F000A4DC
:104700002AFA75F004E517A42AF9EE28F582EF39A4
:10471000F58312216FA814A915E875F004A4C885C3
:10472000F00875F000A42508F50875F004E515A457
:104730002508F9EE28F582EF39F58312217B740202
:104740001222CC12216FA816A917E875F004A4C88C
:1047500085F00875F000A42508F50875F004E51744
:10476000A42508F9EE28F582EF39F58312217BA8FC
:1047700014A915E875F004A4C8AAF075F000A42ADD
:10478000FA75F004E515A42AF9EE28F582EF39F55B
:1047900083A3A3A3A312216F74021222CC12217B44
:1047A000A816A917E875F004A4C8AAF075F000A42B
:1047B0002AFA75F004E517A42AF9EE28F582EF39F4
:1047C000F583A3A3A3A312216FA814A915E875F07C
:1047D00004A4C885F00875F000A42508F50875F054
:1047E00004E515A42508F9EE28F582EF39F583A331
:1047F000A3A3A312217B74021222CC12216FA8164C
:10480000A917E875F004A4C885F00875F000A42580
:1048100008F50875F004E517A42508F9EE28F582D7
:10482000EF39F583A3A3A3A312217BA814A915E84C
:1048300075F004A4C8AAF075F000A42AFA75F00473
:10484000E515A42AF9EE28F582EF39F583A3A3A391
:10485000A3A3A3A3A312216F74021222CC12217B63
:10486000A816A917E875F004A4C8AAF075F000A46A
:104870002AFA75F004E517A42AF9EE28F582EF3933
:10488000F583A3A3A3A3A3A3A3A312216FA814A991
:1048900015E875F004A4C885F00875F000A4250893
:1048A000F50875F004E515A42508F9EE28F582EF62
:1048B00039F583A3A3A3A3A3A3A3A312217B74020B
:1048C0001222CC12216FA816A917E875F004A4C80B
:1048D00085F00875F000A42508F50875F004E517C3
:1048E000A42508F9EE28F582EF39F583A3A3A3A345
:1048F000A3A3A3A312217BA814A915E875F004A40F
:10490000C8AAF075F000A42AFA75F004E515A42AE7
:10491000F9EE28F8EF39F9E8240CF582E93400F5CE
:104920008312216F74021222CC12217BA816A917C0
:10493000E875F004A4C8AAF075F000A42AFA75F08E
:1049400004E517A42AF9EE28F8EF39F9E8240CF564
:1049500082E93400F58312216FA814A915E875F0D7
:1049600004A4C885F00875F000A42508F50875F0C2
:1049700004E515A42508F9EE28F8EF39F9E8240C28
:10498000F582E93400F58312217B74021222CC12E5
:10499000216FA816A917E875F004A4C885F008755A
:1049A000F000A42508F50875F004E517A42508F91A
:1049B000EE28F8EF39F9E8240CF582E93400F583A4
:1049C00012217BE5142404F514E5153400F515E5F2
:1049D0001624FCF516E51734FFF5170246B07514DA
:1049E00001751500851882851983E0F8A3E0C824B5
:1049F000F0F582E83400F583851408E515F50933F0
:104A000095E0F50AF50B78081216F45003025121CF
:104A1000EE2410FEEF3400FF8E828F83780812217F
:104A20005174187808122046E50875F004A4C508EA
:104A3000A8F075F000A428F875F004E509A428F59D
:104A40000974002508F58274983509F583780812F1
:104A50002151E50854FFF8E5095400F9E875F00420
:104A6000A4C8AAF075F000A42AFA75F004E9A42AF3
:104A7000F9740028F582748839F583780812215179
:104A80008E828F8378101221517410781012204674
:104A9000E51054FFF8E5115400F9E875F004A4C8D6
:104AA000AAF075F000A42AFA75F004E9A42AF974B2
:104AB0000028F582749839F5837810122151E51099
:104AC00054FFF8E5115400F9E875F004A4C8AAF001
:104AD00075F000A42AFA75F004E9A42AF9740028F4
:104AE000F582748439F583780812213E8E828F8393
:104AF0007810122151E4C511F510E51075F004A4E9
:104B0000C510A8F075F000A428F875F004E511A40C
:104B100028F51174002510F58274983511F5837805
:104B200010122151E51054FFF8E5115400F9E87511
:104B3000F004A4C8AAF075F000A42AFA75F004E9FC
:104B4000A42AF9740028F582749439F58378081240
:104B5000213E8E828F837810122151E51054FFF888
:104B6000E5115400F9E875F004A4C8AAF075F00046
:104B7000A42AFA75F004E9A42AF9740028F58274CD
:104B80009839F5837810122151E51054FFF8E5119A
:104B90005400F9E875F004A4C8AAF075F000A42A3E
:104BA000FA75F004E9A42AF9740028F582749039A2
:104BB000F583780812213E8E828F83780812216057
:104BC0008E828F83A3A3A3A378081221517418782F
:104BD00008122046E50875F004A4C508A8F075F091
:104BE00000A428F875F004E509A428F50974002547
:104BF00008F58274983509F5837808122151E50883
:104C000054FFF8E5095400F9E875F004A4C8AAF0C7
:104C100075F000A42AFA75F004E9A42AF9740028B2
:104C2000F582748839F58378081221518E828F833A
:104C3000A3A3A3A378101221517410781012204658
:104C4000E51054FFF8E5115400F9E875F004A4C824
:104C5000AAF075F000A42AFA75F004E9A42AF97400
:104C60000028F582749839F5837810122151E510E7
:104C700054FFF8E5115400F9E875F004A4C8AAF04F
:104C800075F000A42AFA75F004E9A42AF974002842
:104C9000F582748439F583780812213E8E828F83E1
:104CA000A3A3A3A37810122151E4C511F510E510B8
:104CB00075F004A4C510A8F075F000A428F875F0EC
:104CC00004E511A428F51174002510F582749835B7
:104CD00011F5837810122151E51054FFF8E51154B5
:104CE00000F9E875F004A4C8AAF075F000A42AFA47
:104CF00075F004E9A42AF9740028F582749439F552
:104D000083780812213E8E828F83A3A3A3A37810F9
:104D1000122151E51054FFF8E5115400F9E875F03F
:104D200004A4C8AAF075F000A42AFA75F004E9A456
:104D30002AF9740028F582749839F58378101221C5
:104D400051E51054FFF8E5115400F9E875F004A49A
:104D5000C8AAF075F000A42AFA75F004E9A42AF9AB
:104D6000740028F582749039F583780812213E8EFC
:104D7000828F83A3A3A3A378081221608E828F83DE
:104D8000A3A3A3A3A3A3A3A3780812215174187803
:104D900008122046E50875F004A4C508A8F075F0CF
:104DA00000A428F875F004E509A428F50974002585
:104DB00008F58274983509F5837808122151E508C1
:104DC00054FFF8E5095400F9E875F004A4C8AAF006
:104DD00075F000A42AFA75F004E9A42AF9740028F1
:104DE000F582748839F58378081221518E828F8379
:104DF000A3A3A3A3A3A3A3A3781012215174107893
:104E000010122046E51054FFF8E5115400F9E8753A
:104E1000F004A4C8AAF075F000A42AFA75F004E919
:104E2000A42AF9740028F582749839F58378101251
:104E30002151E51054FFF8E5115400F9E875F0042C
:104E4000A4C8AAF075F000A42AFA75F004E9A42A0F
:104E5000F9740028F582748439F583780812213EAC
:104E60008E828F83A3A3A3A3A3A3A3A3781012214D
:104E700051E4C511F510E51075F004A4C510A8F0B3
:104E800075F000A428F875F004E511A428F5117454
:104E9000002510F58274983511F583781012215190
:104EA000E51054FFF8E5115400F9E875F004A4C8C2
:104EB000AAF075F000A42AFA75F004E9A42AF9749E
:104EC0000028F582749439F583780812213E8E8289
:104ED0008F83A3A3A3A3A3A3A3A37810122151E5B7
:104EE0001054FFF8E5115400F9E875F004A4C8AABD
:104EF000F075F000A42AFA75F004E9A42AF9740008
:104F000028F582749839F5837810122151E51054F0
:104F1000FFF8E5115400F9E875F004A4C8AAF0758B
:104F2000F000A42AFA75F004E9A42AF9740028F51F
:104F300082749039F583780812213E8E828F83A384
:104F4000A3A3A3A3A3A3A37808122160EE240CF5C6
:104F500082EF3400F5837808122151741878081212
:104F60002046E50875F004A4C508A8F075F000A473
:104F700028F875F004E509A428F50974002508F55A
:104F80008274983509F5837808122151E50854FF99
:104F9000F8E5095400F9E875F004A4C8AAF075F022
:104FA00000A42AFA75F004E9A42AF9740028F5820D
:104FB000748839F5837808122151EE240CF582EFBC
:104FC0003400F583781012215174107810122046A5
:104FD000E51054FFF8E5115400F9E875F004A4C891
:104FE000AAF075F000A42AFA75F004E9A42AF9746D
:104FF0000028F582749839F5837810122151E51054
:1050000054FFF8E5115400F9E875F004A4C8AAF0BB
:1050100075F000A42AFA75F004E9A42AF9740028AE
:10502000F582748439F583780812213EEE240CF55C
:1050300082EF3400F5837810122151E4C511F51088
:10504000E51075F004A4C510A8F075F000A428F8C8
:1050500075F004E511A428F51174002510F582748B
:10506000983511F5837810122151E51054FFF8E5B9
:10507000115400F9E875F004A4C8AAF075F000A472
:105080002AFA75F004E9A42AF9740028F5827494C8
:1050900039F583780812213EEE240CF582EF3400B6
:1050A000F5837810122151E51054FFF8E5115400F2
:1050B000F9E875F004A4C8AAF075F000A42AFA75FE
:1050C000F004E9A42AF9740028F582749839F5836C
:1050D0007810122151E51054FFF8E5115400F9E859
:1050E00075F004A4C8AAF075F000A42AFA75F004BB
:1050F000E9A42AF9740028F582749039F5837808B8
:1051000012213EEE240CF582EF3400F5837808126C
:105110002160E5142401F514E5153400F515024964
:10512000E47A007B007C007D00740A1222977F10D5
:105130000223AA74E81222D874E2122281740212A5
:1051400022CCEAF0A3EBF0851882851983ECF0A35A
:10515000EDF074361222CCE0F8A3E0F9E8FAE9FBAE
:1051600074021222CCE0F8A3E0F5838882E0F51007
:10517000E4F511F512F5137418781012205F74021B
:105180001222CCE0F8A3E0F5838882A3E0F514E4D2
:10519000F515F516F5177410781412205F7810794C
:1051A0001412212B74021222CCE0F8A3E0F58388BC
:1051B00082A3A3E0F514E4F515F516F51774087845
:1051C0001412205F7810791412212B74021222CC51
:1051D000E0F8A3E0F5838882A3A3A3E0F514E4F547
:1051E00015F516F5177810791412212B8A828B8306
:1051F000781012213E74081222CC781012216074AB
:10520000021222CCE0F8A3E0F5838882A3A3A3A333
:10521000E0F510E4F511F512F5137418781012206A
:105220005F74021222CCE0F8A3E0F5838882A3A386
:10523000A3A3A3E0F514E4F515F516F5177410789B
:105240001412205F7810791412212B74021222CCD0
:10525000E0F8A3E0C82406F582E83400F583E0F521
:1052600014E4F515F516F5177408781412205F7814
:1052700010791412212B74021222CCE0F8A3E0C89A
:105280002407F582E83400F583E0F514E4F515F51C
:1052900016F5177810791412212B8A828B83A3A319
:1052A000A3A3781012213E74041222CC781012218C
:1052B0006074021222CCE0F8A3E0C82408F582E86A
:1052C0003400F583E0F510E4F511F512F5137418C8
:1052D000781012205F74021222CCE0F8A3E0C824F8
:1052E00009F582E83400F583E0F514E4F515F516C8
:1052F000F5177410781412205F7810791412212B8E
:1053000074021222CCE0F8A3E0C8240AF582E83443
:1053100000F583E0F514E4F515F516F51774087833
:105320001412205F7810791412212B74021222CCEF
:10533000E0F8A3E0C8240BF582E83400F583E0F53B
:1053400014E4F515F516F5177810791412212B8A47
:10535000828B83A3A3A3A3A3A3A3A3781012213EAC
:1053600085100885110985120A85130B7402122213
:10537000CCE0F8A3E0C8240CF582E83400F583E023
:10538000F510E4F511F512F5137418781012205F7A
:1053900074021222CCE0F8A3E0C8240DF582E834B0
:1053A00000F583E0F514E4F515F516F5177410789B
:1053B0001412205F7810791412212B74021222CC5F
:1053C000E0F8A3E0C8240EF582E83400F583E0F5A8
:1053D00014E4F515F516F5177408781412205F78A3
:1053E00010791412212B74021222CCE0F8A3E0C829
:1053F000240FF582E83400F583E0F514E4F515F5A3
:1054000016F5177810791412212BEA240CF582EB8B
:105410003400F583781012213E85100C85110D851E
:10542000120E85130F74361222CCE0F8A3E0C824C4
:10543000F0F582E83400F583781012215174017878
:105440001012202C741C1222CCE510F0A3E511F0F0
:1054500074081222CC78101221517418781012207E
:1054600046E51075F004A4C510A8F075F000A42856
:10547000F875F004E511A428F51174002510F582E3
:1054800074883511F5837810122151850C14850D1F
:1054900015850E16850F1774107814122046E51422
:1054A00054FFF8E5155400F9E875F004A4C8ACF011
:1054B00075F000A42CFC75F004E9A42CF974002804
:1054C000F582748439F583781012213EA808A90961
:1054D000E4C9F8E875F004A4C8ACF075F000A42C99
:1054E000FC75F004E9A42CF9740028F58274943951
:1054F000F583781012213E74041222CC7814122104
:1055000051E51454FFF8E5155400F9E875F004A4CA
:10551000C8ACF075F000A42CFC75F004E9A42CF9DB
:10552000740028F582749039F583781012213EEAD0
:105530002410F582EB3400F583781012213E7418A4
:105540001222CC781012216074041222CC7810122E
:10555000215174187810122046E51075F004A4C586
:1055600010A8F075F000A428F875F004E511A4283F
:10557000F51174002510F58274883511F5837810C3
:1055800012215174081222CC78141221517410780F
:1055900014122046E51454FFF8E5155400F9E87597
:1055A000F004A4C8ACF075F000A42CFC75F004E97C
:1055B000A42CF9740028F582748439F583781012CC
:1055C000213EA80CA90DE4C9F8E875F004A4C8AC04
:1055D000F075F000A42CFC75F004E9A42CF974001B
:1055E00028F582749439F583781012213E850814C9
:1055F000850915E51454FFF8E5155400F9E875F030
:1056000004A4C8ACF075F000A42CFC75F004E9A467
:105610002CF9740028F582749039F58378101221E2
:105620003EEA2414F582EB3400F583781012213E13
:1056300074141222CC78101221608508108509118B
:10564000850A12850B1374187810122046E5107520
:10565000F004A4C510A8F075F000A428F875F004B3
:10566000E511A428F51174002510F5827488351110
:10567000F583781012215174041222CC781412216F
:105680005174107814122046E51454FFF8E51554AF
:1056900000F9E875F004A4C8ACF075F000A42CFC87
:1056A00075F004E9A42CF9740028F582748439F5A6
:1056B00083781012213E74081222CC7814122151E2
:1056C000E4C515F514E51475F004A4C514A8F07527
:1056D000F000A428F875F004E515A428F515740069
:1056E0002514F58274943515F583781012213E85C2
:1056F0000C14850D15E51454FFF8E5155400F9E870
:1057000075F004A4C8ACF075F000A42CFC75F0048E
:10571000E9A42CF9740028F582749039F583781087
:1057200012213EEA2418F582EB3400F5837810123A
:10573000213E74101222CC7810122160850C108545
:105740000D11850E12850F1374187810122046E57E
:105750001075F004A4C510A8F075F000A428F87521
:10576000F004E511A428F51174002510F582748861
:105770003511F58378101221518508148509158596
:105780000A16850B1774107814122046E51454FF7E
:10579000F8E5155400F9E875F004A4C8ACF075F00C
:1057A00000A42CFC75F004E9A42CF9740028F582FF
:1057B000748439F583781012213E74041222CC7857
:1057C00014122151E4C515F514E51475F004A4C5AF
:1057D00014A8F075F000A428F875F004E515A428C5
:1057E000F51574002514F58274943515F583781039
:1057F00012213E74081222CC7814122151E514545F
:10580000FFF8E5155400F9E875F004A4C8ACF0758C
:10581000F000A42CFC75F004E9A42CF9740028F520
:1058200082749039F583781012213EEA241CF582A7
:10583000EB3400F583781012213E740C1222CC78E0
:1058400010122160EA2420FAEB3400FB741C1222AF
:10585000CCE024FFF8A3E034FFF9741C1222CCE85A
:10586000F0A3E9F0E8496003025F5F74181222CCEC
:10587000781012215174187810122046E51075F036
:1058800004A4C510A8F075F000A428F875F004E58C
:1058900011A428F51174002510F58274803511F5D6
:1058A0008378141221517418781412205F740C122A
:1058B00022CC781012215174107810122046E51075
:1058C00054FFF8E5115400F9E875F004A4C8ACF0F1
:1058D00075F000A42CFC75F004E9A42CF9740028E0
:1058E000F582748039F58378101221517410781084
:1058F00012205F7814791012212B74101222CC78A8
:1059000010122151E4C511F510E51075F004A4C57D
:1059100010A8F075F000A428F875F004E511A4288B
:10592000F51174002510F58274803511F583781017
:105930001221517408781012205F78147910122106
:105940002B74141222CC7810122151E51054FFF858
:10595000E5115400F9E875F004A4C8ACF075F00046
:10596000A42CFC75F004E9A42CF9740028F58274C9
:105970008039F583781412213E8A828B8378141241
:10598000213E74081222CC7814122160740812226D
:10599000CC781012215174187810122046E5108529
:1059A0001882851983E0F8A3E0F5838882E510F07A
:1059B00074081222CC781012215174107810122021
:1059C00046E510851882851983E0F8A3E0F5838801
:1059D00082A3E510F074081222CC7810122151E451
:1059E000E511F510E510851882851983E0F8A3E02C
:1059F000F5838882A3A3E510F074081222CC7810F6
:105A0000122151E510851882851983E0F8A3E0F58D
:105A1000838882A3A3A3E510F074141222CC78101B
:105A200012215174187810122046E51075F004A464
:105A3000C510A8F075F000A428F875F004E511A4CD
:105A400028F51174002510F58274803511F58378DE
:105A5000141221517418781412205F74181222CC79
:105A6000781012215174107810122046E51054FF5E
:105A7000F8E5115400F9E875F004A4C8ACF075F02D
:105A800000A42CFC75F004E9A42CF9740028F5821C
:105A9000748039F583781012215174107810122017
:105AA0005F7814791012212B740C1222CC7810120A
:105AB0002151E4C511F510E51075F004A4C510A836
:105AC000F075F000A428F875F004E511A428F5118C
:105AD00074002510F58274803511F5837810122139
:105AE000517408781012205F7814791012212B74E9
:105AF000101222CC7810122151E51054FFF8E51154
:105B00005400F9E875F004A4C8ACF075F000A42CBA
:105B1000FC75F004E9A42CF9740028F5827480392E
:105B2000F583781412213E8A828B83A3A3A3A378E2
